{
  "_format": "hh-sol-artifact-1",
  "contractName": "EntryPoint",
  "sourceName": "contracts/entrypoint/EntryPoint.sol",
  "abi": [
    {
      "inputs": [
        {
          "internalType": "contract ISingletonFactory",
          "name": "_create2Factory",
          "type": "address"
        },
        {
          "internalType": "uint32",
          "name": "_unstakeDelaySec",
          "type": "uint32"
        }
      ],
      "stateMutability": "nonpayable",
      "type": "constructor"
    },
    {
      "inputs": [
        {
          "internalType": "uint256",
          "name": "opIndex",
          "type": "uint256"
        },
        {
          "internalType": "string",
          "name": "reason",
          "type": "string"
        }
      ],
      "name": "FailedOp",
      "type": "error"
    },
    {
      "anonymous": false,
      "inputs": [
        {
          "indexed": true,
          "internalType": "address",
          "name": "account",
          "type": "address"
        },
        {
          "indexed": false,
          "internalType": "uint256",
          "name": "deposited",
          "type": "uint256"
        }
      ],
      "name": "Deposited",
      "type": "event"
    },
    {
      "anonymous": false,
      "inputs": [
        {
          "indexed": true,
          "internalType": "address",
          "name": "account",
          "type": "address"
        },
        {
          "indexed": false,
          "internalType": "uint256",
          "name": "deposited",
          "type": "uint256"
        },
        {
          "indexed": false,
          "internalType": "uint256",
          "name": "unstakeDelaySec",
          "type": "uint256"
        }
      ],
      "name": "StakeLocked",
      "type": "event"
    },
    {
      "anonymous": false,
      "inputs": [
        {
          "indexed": true,
          "internalType": "address",
          "name": "account",
          "type": "address"
        },
        {
          "indexed": false,
          "internalType": "uint64",
          "name": "withdrawTime",
          "type": "uint64"
        }
      ],
      "name": "StakeUnlocked",
      "type": "event"
    },
    {
      "anonymous": false,
      "inputs": [
        {
          "indexed": true,
          "internalType": "address",
          "name": "sender",
          "type": "address"
        },
        {
          "indexed": true,
          "internalType": "address",
          "name": "paymaster",
          "type": "address"
        },
        {
          "indexed": false,
          "internalType": "bytes32",
          "name": "requestId",
          "type": "bytes32"
        },
        {
          "indexed": false,
          "internalType": "bool",
          "name": "success",
          "type": "bool"
        },
        {
          "indexed": false,
          "internalType": "bytes",
          "name": "result",
          "type": "bytes"
        }
      ],
      "name": "UserOperationExecuted",
      "type": "event"
    },
    {
      "anonymous": false,
      "inputs": [
        {
          "indexed": true,
          "internalType": "address",
          "name": "account",
          "type": "address"
        },
        {
          "indexed": false,
          "internalType": "address",
          "name": "recipient",
          "type": "address"
        },
        {
          "indexed": false,
          "internalType": "uint256",
          "name": "deposited",
          "type": "uint256"
        },
        {
          "indexed": false,
          "internalType": "uint256",
          "name": "amount",
          "type": "uint256"
        }
      ],
      "name": "Withdrawn",
      "type": "event"
    },
    {
      "inputs": [
        {
          "internalType": "uint32",
          "name": "_unstakeDelaySec",
          "type": "uint32"
        }
      ],
      "name": "addStake",
      "outputs": [],
      "stateMutability": "payable",
      "type": "function"
    },
    {
      "inputs": [
        {
          "internalType": "address",
          "name": "account",
          "type": "address"
        }
      ],
      "name": "balanceOf",
      "outputs": [
        {
          "internalType": "uint256",
          "name": "",
          "type": "uint256"
        }
      ],
      "stateMutability": "view",
      "type": "function"
    },
    {
      "inputs": [
        {
          "internalType": "address",
          "name": "account",
          "type": "address"
        }
      ],
      "name": "canWithdraw",
      "outputs": [
        {
          "internalType": "bool",
          "name": "",
          "type": "bool"
        }
      ],
      "stateMutability": "view",
      "type": "function"
    },
    {
      "inputs": [],
      "name": "create2Factory",
      "outputs": [
        {
          "internalType": "contract ISingletonFactory",
          "name": "",
          "type": "address"
        }
      ],
      "stateMutability": "view",
      "type": "function"
    },
    {
      "inputs": [
        {
          "internalType": "address",
          "name": "account",
          "type": "address"
        }
      ],
      "name": "depositTo",
      "outputs": [],
      "stateMutability": "payable",
      "type": "function"
    },
    {
      "inputs": [
        {
          "internalType": "address",
          "name": "account",
          "type": "address"
        }
      ],
      "name": "getDeposit",
      "outputs": [
        {
          "components": [
            {
              "internalType": "uint256",
              "name": "amount",
              "type": "uint256"
            },
            {
              "internalType": "uint32",
              "name": "unstakeDelaySec",
              "type": "uint32"
            },
            {
              "internalType": "uint64",
              "name": "withdrawTime",
              "type": "uint64"
            }
          ],
          "internalType": "struct Staking.Deposit",
          "name": "",
          "type": "tuple"
        }
      ],
      "stateMutability": "view",
      "type": "function"
    },
    {
      "inputs": [
        {
          "components": [
            {
              "internalType": "address",
              "name": "sender",
              "type": "address"
            },
            {
              "internalType": "uint256",
              "name": "nonce",
              "type": "uint256"
            },
            {
              "internalType": "bytes",
              "name": "initCode",
              "type": "bytes"
            },
            {
              "internalType": "bytes",
              "name": "callData",
              "type": "bytes"
            },
            {
              "internalType": "uint256",
              "name": "callGas",
              "type": "uint256"
            },
            {
              "internalType": "uint256",
              "name": "verificationGas",
              "type": "uint256"
            },
            {
              "internalType": "uint256",
              "name": "preVerificationGas",
              "type": "uint256"
            },
            {
              "internalType": "uint256",
              "name": "maxFeePerGas",
              "type": "uint256"
            },
            {
              "internalType": "uint256",
              "name": "maxPriorityFeePerGas",
              "type": "uint256"
            },
            {
              "internalType": "address",
              "name": "paymaster",
              "type": "address"
            },
            {
              "internalType": "bytes",
              "name": "paymasterData",
              "type": "bytes"
            },
            {
              "internalType": "bytes",
              "name": "signature",
              "type": "bytes"
            }
          ],
          "internalType": "struct UserOperation",
          "name": "op",
          "type": "tuple"
        }
      ],
      "name": "getGasPrice",
      "outputs": [
        {
          "internalType": "uint256",
          "name": "",
          "type": "uint256"
        }
      ],
      "stateMutability": "view",
      "type": "function"
    },
    {
      "inputs": [
        {
          "components": [
            {
              "internalType": "address",
              "name": "sender",
              "type": "address"
            },
            {
              "internalType": "uint256",
              "name": "nonce",
              "type": "uint256"
            },
            {
              "internalType": "bytes",
              "name": "initCode",
              "type": "bytes"
            },
            {
              "internalType": "bytes",
              "name": "callData",
              "type": "bytes"
            },
            {
              "internalType": "uint256",
              "name": "callGas",
              "type": "uint256"
            },
            {
              "internalType": "uint256",
              "name": "verificationGas",
              "type": "uint256"
            },
            {
              "internalType": "uint256",
              "name": "preVerificationGas",
              "type": "uint256"
            },
            {
              "internalType": "uint256",
              "name": "maxFeePerGas",
              "type": "uint256"
            },
            {
              "internalType": "uint256",
              "name": "maxPriorityFeePerGas",
              "type": "uint256"
            },
            {
              "internalType": "address",
              "name": "paymaster",
              "type": "address"
            },
            {
              "internalType": "bytes",
              "name": "paymasterData",
              "type": "bytes"
            },
            {
              "internalType": "bytes",
              "name": "signature",
              "type": "bytes"
            }
          ],
          "internalType": "struct UserOperation",
          "name": "op",
          "type": "tuple"
        }
      ],
      "name": "getRequiredPrefund",
      "outputs": [
        {
          "internalType": "uint256",
          "name": "",
          "type": "uint256"
        }
      ],
      "stateMutability": "view",
      "type": "function"
    },
    {
      "inputs": [
        {
          "internalType": "bytes",
          "name": "initCode",
          "type": "bytes"
        },
        {
          "internalType": "uint256",
          "name": "salt",
          "type": "uint256"
        }
      ],
      "name": "getSenderAddress",
      "outputs": [
        {
          "internalType": "address",
          "name": "",
          "type": "address"
        }
      ],
      "stateMutability": "view",
      "type": "function"
    },
    {
      "inputs": [
        {
          "components": [
            {
              "internalType": "address",
              "name": "sender",
              "type": "address"
            },
            {
              "internalType": "uint256",
              "name": "nonce",
              "type": "uint256"
            },
            {
              "internalType": "bytes",
              "name": "initCode",
              "type": "bytes"
            },
            {
              "internalType": "bytes",
              "name": "callData",
              "type": "bytes"
            },
            {
              "internalType": "uint256",
              "name": "callGas",
              "type": "uint256"
            },
            {
              "internalType": "uint256",
              "name": "verificationGas",
              "type": "uint256"
            },
            {
              "internalType": "uint256",
              "name": "preVerificationGas",
              "type": "uint256"
            },
            {
              "internalType": "uint256",
              "name": "maxFeePerGas",
              "type": "uint256"
            },
            {
              "internalType": "uint256",
              "name": "maxPriorityFeePerGas",
              "type": "uint256"
            },
            {
              "internalType": "address",
              "name": "paymaster",
              "type": "address"
            },
            {
              "internalType": "bytes",
              "name": "paymasterData",
              "type": "bytes"
            },
            {
              "internalType": "bytes",
              "name": "signature",
              "type": "bytes"
            }
          ],
          "internalType": "struct UserOperation[]",
          "name": "ops",
          "type": "tuple[]"
        },
        {
          "internalType": "address payable",
          "name": "redeemer",
          "type": "address"
        }
      ],
      "name": "handleOps",
      "outputs": [],
      "stateMutability": "nonpayable",
      "type": "function"
    },
    {
      "inputs": [
        {
          "internalType": "address",
          "name": "account",
          "type": "address"
        },
        {
          "internalType": "uint256",
          "name": "amount",
          "type": "uint256"
        }
      ],
      "name": "hasDeposited",
      "outputs": [
        {
          "internalType": "bool",
          "name": "",
          "type": "bool"
        }
      ],
      "stateMutability": "view",
      "type": "function"
    },
    {
      "inputs": [
        {
          "internalType": "address",
          "name": "account",
          "type": "address"
        }
      ],
      "name": "isStaked",
      "outputs": [
        {
          "internalType": "bool",
          "name": "",
          "type": "bool"
        }
      ],
      "stateMutability": "view",
      "type": "function"
    },
    {
      "inputs": [
        {
          "internalType": "address",
          "name": "account",
          "type": "address"
        }
      ],
      "name": "isUnstaking",
      "outputs": [
        {
          "internalType": "bool",
          "name": "",
          "type": "bool"
        }
      ],
      "stateMutability": "view",
      "type": "function"
    },
    {
      "inputs": [
        {
          "components": [
            {
              "internalType": "address",
              "name": "sender",
              "type": "address"
            },
            {
              "internalType": "uint256",
              "name": "nonce",
              "type": "uint256"
            },
            {
              "internalType": "bytes",
              "name": "initCode",
              "type": "bytes"
            },
            {
              "internalType": "bytes",
              "name": "callData",
              "type": "bytes"
            },
            {
              "internalType": "uint256",
              "name": "callGas",
              "type": "uint256"
            },
            {
              "internalType": "uint256",
              "name": "verificationGas",
              "type": "uint256"
            },
            {
              "internalType": "uint256",
              "name": "preVerificationGas",
              "type": "uint256"
            },
            {
              "internalType": "uint256",
              "name": "maxFeePerGas",
              "type": "uint256"
            },
            {
              "internalType": "uint256",
              "name": "maxPriorityFeePerGas",
              "type": "uint256"
            },
            {
              "internalType": "address",
              "name": "paymaster",
              "type": "address"
            },
            {
              "internalType": "bytes",
              "name": "paymasterData",
              "type": "bytes"
            },
            {
              "internalType": "bytes",
              "name": "signature",
              "type": "bytes"
            }
          ],
          "internalType": "struct UserOperation",
          "name": "op",
          "type": "tuple"
        }
      ],
      "name": "simulateValidation",
      "outputs": [
        {
          "internalType": "uint256",
          "name": "preOpGas",
          "type": "uint256"
        },
        {
          "internalType": "uint256",
          "name": "prefund",
          "type": "uint256"
        }
      ],
      "stateMutability": "nonpayable",
      "type": "function"
    },
    {
      "inputs": [],
      "name": "unlockStake",
      "outputs": [],
      "stateMutability": "nonpayable",
      "type": "function"
    },
    {
      "inputs": [],
      "name": "unstakeDelaySec",
      "outputs": [
        {
          "internalType": "uint32",
          "name": "",
          "type": "uint32"
        }
      ],
      "stateMutability": "view",
      "type": "function"
    },
    {
      "inputs": [
        {
          "internalType": "address payable",
          "name": "recipient",
          "type": "address"
        }
      ],
      "name": "withdrawStake",
      "outputs": [],
      "stateMutability": "nonpayable",
      "type": "function"
    },
    {
      "inputs": [
        {
          "internalType": "address payable",
          "name": "recipient",
          "type": "address"
        },
        {
          "internalType": "uint256",
          "name": "amount",
          "type": "uint256"
        }
      ],
      "name": "withdrawTo",
      "outputs": [],
      "stateMutability": "nonpayable",
      "type": "function"
    },
    {
      "stateMutability": "payable",
      "type": "receive"
    }
  ],
  "bytecode": "0x60c06040523480156200001157600080fd5b5060405162002d5138038062002d5183398101604081905262000034916200004f565b63ffffffff166080526001600160a01b031660a052620000a1565b600080604083850312156200006357600080fd5b82516001600160a01b03811681146200007b57600080fd5b602084015190925063ffffffff811681146200009657600080fd5b809150509250929050565b60805160a051612c6e620000e36000396000818161034c0152818161044901526115ca0152600081816102580152818161059601526107160152612c6e6000f3fe60806040526004361061012d5760003560e01c806361874405116100a5578063b760faf911610074578063c23a5cea11610059578063c23a5cea146103db578063c31e4354146103fb578063e1254fba146104bd57600080fd5b8063b760faf9146103b3578063bb9fe6bf146103c657600080fd5b806361874405146102af57806370a08231146102f7578063a0df3fc71461033a578063a53205ba1461039357600080fd5b8063205c2878116100fc5780632815c17b116100e15780632815c17b14610226578063390b9978146102465780636177fd181461028f57600080fd5b8063205c2878146101e6578063231f5ff51461020657600080fd5b80630396cb601461013957806319262d301461014e5780631a1c1141146101835780631d3bd0e8146101b857600080fd5b3661013457005b600080fd5b61014c6101473660046122fa565b610580565b005b34801561015a57600080fd5b5061016e610169366004612352565b610757565b60405190151581526020015b60405180910390f35b34801561018f57600080fd5b506101a361019e36600461236f565b6107c1565b6040805192835260208301919091520161017a565b3480156101c457600080fd5b506101d86101d336600461236f565b610869565b60405190815260200161017a565b3480156101f257600080fd5b5061014c6102013660046123ab565b61087a565b34801561021257600080fd5b5061016e610221366004612352565b610a8d565b34801561023257600080fd5b5061014c6102413660046123d7565b610ae4565b34801561025257600080fd5b5061027a7f000000000000000000000000000000000000000000000000000000000000000081565b60405163ffffffff909116815260200161017a565b34801561029b57600080fd5b5061016e6102aa366004612352565b610c9a565b3480156102bb57600080fd5b5061016e6102ca3660046123ab565b73ffffffffffffffffffffffffffffffffffffffff91909116600090815260208190526040902054101590565b34801561030357600080fd5b506101d8610312366004612352565b73ffffffffffffffffffffffffffffffffffffffff1660009081526020819052604090205490565b34801561034657600080fd5b5061036e7f000000000000000000000000000000000000000000000000000000000000000081565b60405173ffffffffffffffffffffffffffffffffffffffff909116815260200161017a565b34801561039f57600080fd5b506101d86103ae36600461236f565b610cf0565b61014c6103c1366004612352565b610cfb565b3480156103d257600080fd5b5061014c610d7e565b3480156103e757600080fd5b5061014c6103f6366004612352565b610f0c565b34801561040757600080fd5b5061036e61041636600461251d565b8151602092830120604080517fff00000000000000000000000000000000000000000000000000000000000000818601527f000000000000000000000000000000000000000000000000000000000000000060601b7fffffffffffffffffffffffffffffffffffffffff0000000000000000000000001660218201526035810193909352605580840192909252805180840390920182526075909201909152805191012090565b3480156104c957600080fd5b5061054e6104d8366004612352565b60408051606080820183526000808352602080840182905292840181905273ffffffffffffffffffffffffffffffffffffffff9490941684528382529282902082519384018352805484526001015463ffffffff811691840191909152640100000000900467ffffffffffffffff169082015290565b604080518251815260208084015163ffffffff16908201529181015167ffffffffffffffff169082015260600161017a565b33600090815260208190526040902063ffffffff7f000000000000000000000000000000000000000000000000000000000000000081169083161015610627576040517f08c379a000000000000000000000000000000000000000000000000000000000815260206004820152601a60248201527f5374616b696e673a204c6f7720756e7374616b652064656c617900000000000060448201526064015b60405180910390fd5b600181015463ffffffff908116908316101561069f576040517f08c379a000000000000000000000000000000000000000000000000000000000815260206004820181905260248201527f5374616b696e673a2044656372656173696e6720756e7374616b652074696d65604482015260640161061e565b80546000906106af9034906125d6565b8083556001830180547fffffffffffffffffffffffffffffffffffffffff0000000000000000000000001663ffffffff861617905560405190915033907fa5ae833d0bb1dcd632d98a8b70973e8516812898e19bf27b70071ebc8dc52c019061074a9084907f00000000000000000000000000000000000000000000000000000000000000009091825263ffffffff16602082015260400190565b60405180910390a2505050565b73ffffffffffffffffffffffffffffffffffffffff81166000908152602081905260408120600181015463ffffffff1615806107ba575061079783610a8d565b80156107ba575060018101544264010000000090910467ffffffffffffffff1611155b9392505050565b60008060005a905060006107d6600086610f2a565b90508460c001356107e683611077565b6107f091906125d6565b602082015190945092503315610862576040517f08c379a000000000000000000000000000000000000000000000000000000000815260206004820152601b60248201527f456e747279506f696e743a2043616c6c6572206e6f74207a65726f0000000000604482015260640161061e565b5050915091565b6000610874826110b9565b92915050565b600081116108e4576040517f08c379a000000000000000000000000000000000000000000000000000000000815260206004820152601d60248201527f5374616b696e673a20576974686472617720616d6f756e74207a65726f000000604482015260640161061e565b6108ed33610757565b610953576040517f08c379a000000000000000000000000000000000000000000000000000000000815260206004820152601860248201527f5374616b696e673a2043616e6e6f742077697468647261770000000000000000604482015260640161061e565b336000908152602081815260408083208151808301909252601d82527f5374616b696e673a20496e73756666696369656e74206465706f7369740000009282019290925281549192916109a79185906110f2565b6001830180547fffffffffffffffffffffffffffffffffffffffff00000000000000000000000016905580835560408051808201909152601881527f5374616b696e673a205769746864726177206661696c656400000000000000006020820152909150610a2e9073ffffffffffffffffffffffffffffffffffffffff8616908590611138565b6040805173ffffffffffffffffffffffffffffffffffffffff861681526020810183905290810184905233907f91fb9d98b786c57d74c099ccd2beca1739e9f6a81fb49001ca465c4b7591bbe29060600160405180910390a250505050565b73ffffffffffffffffffffffffffffffffffffffff81166000908152602081905260408120600181015463ffffffff16158015906107ba575060010154640100000000900467ffffffffffffffff16151592915050565b60008267ffffffffffffffff811115610aff57610aff61245d565b604051908082528060200260200182016040528015610b5e57816020015b610b4b6040518060800160405280606081526020016000815260200160008152602001600080191681525090565b815260200190600190039081610b1d5790505b50905060005b83811015610bc957610b9981868684818110610b8257610b826125ee565b9050602002810190610b94919061261d565b610f2a565b828281518110610bab57610bab6125ee565b60200260200101819052508080610bc19061265b565b915050610b64565b506000805b84811015610c3b57610c1d81878784818110610bec57610bec6125ee565b9050602002810190610bfe919061261d565b858481518110610c1057610c106125ee565b602002602001015161121a565b610c2790836125d6565b915080610c338161265b565b915050610bce565b5060408051808201909152601c81527f456e747279506f696e743a204661696c656420746f2072656465656d000000006020820152610c939073ffffffffffffffffffffffffffffffffffffffff8516908390611138565b5050505050565b73ffffffffffffffffffffffffffffffffffffffff81166000908152602081905260408120600181015463ffffffff16158015906107ba575060010154640100000000900467ffffffffffffffff161592915050565b60006108748261145b565b73ffffffffffffffffffffffffffffffffffffffff811660009081526020819052604081208054909190610d309034906125d6565b80835560405181815290915073ffffffffffffffffffffffffffffffffffffffff8416907f2da466a7b24304f47e87fa2e1e5a81b9831ce54fec19055ce277ca2f39ba42c49060200161074a565b610d8733610a8d565b15610dee576040517f08c379a000000000000000000000000000000000000000000000000000000000815260206004820152601e60248201527f5374616b696e673a20556e7374616b696e6720696e2070726f67726573730000604482015260640161061e565b610df733610c9a565b610e5d576040517f08c379a000000000000000000000000000000000000000000000000000000000815260206004820152601f60248201527f5374616b696e673a204465706f736974206e6f74207374616b65642079657400604482015260640161061e565b3360009081526020819052604081206001810154909190610e8d90610e889063ffffffff16426125d6565b611496565b6001830180547fffffffffffffffffffffffffffffffffffffffff0000000000000000ffffffff1664010000000067ffffffffffffffff84169081029190911790915560405190815290915033907f6259ea3087db41257dca17cfdea2b5a357564996c22321b431f62150e281d5c59060200160405180910390a25050565b33600090815260208190526040902054610f2790829061087a565b50565b610f586040518060800160405280606081526020016000815260200160008152602001600080191681525090565b60005a9050610f678484611534565b6000610f728461168e565b9050610f7d816116e2565b6000610f88856110b9565b9050610f9686868484611773565b436000610fa285611077565b90506000610ff6828a6040518060400160405280602081526020017f456e747279506f696e743a20566572696620676173206e6f7420656e6f7567688152508b60a0013561196e909392919063ffffffff16565b602088018590526060880186905290506110138989878785611996565b875261101e86611077565b6040808901829052805180820190915260208082527f456e747279506f696e743a20566572696620676173206e6f7420656e6f7567689082015261106b9160a08b01351015908b90611c0d565b50505050505092915050565b60006108745a60408051808201909152601981527f496e76616c69642070726576696f757320676173206c6566740000000000000060208201528491906110f2565b60008060c08301356110d360a085013560808601356125d6565b6110dd91906125d6565b90506110e88361145b565b6107ba9082612694565b60008184841115611130576040517f08c379a000000000000000000000000000000000000000000000000000000000815260040161061e919061274b565b505050900390565b814710156111a2576040517f08c379a000000000000000000000000000000000000000000000000000000000815260206004820152601d60248201527f416464726573733a20696e73756666696369656e742062616c616e6365000000604482015260640161061e565b6000808473ffffffffffffffffffffffffffffffffffffffff168460405160006040518083038185875af1925050503d80600081146111fd576040519150601f19603f3d011682016040523d82523d6000602084013e611202565b606091505b5091509150611212828285611c4d565b505050505050565b6000805a90506000806112306020870187612352565b73ffffffffffffffffffffffffffffffffffffffff166080870135611258606089018961275e565b6040516112669291906127c3565b60006040518083038160008787f1925050503d80600081146112a4576040519150601f19603f3d011682016040523d82523d6000602084013e6112a9565b606091505b5090925090506112c161014087016101208801612352565b73ffffffffffffffffffffffffffffffffffffffff166112e46020880188612352565b73ffffffffffffffffffffffffffffffffffffffff167f8965e0ecd8a6f5da3a82e507c5d79c001a79af0c0a48a0043a79ed2d323a865f87606001518585604051611331939291906127d3565b60405180910390a3600061134484611077565b866040015161135391906125d6565b905061135e8761145b565b6113689082612694565b945061137387611ca0565b1561139157611386888888878988611cd3565b9450505050506107ba565b60006113e3868a6040518060400160405280601f81526020017f456e747279506f696e743a20496e73756666696369656e7420726566756e64008152508a6020015161196e909392919063ffffffff16565b905061144f816040518060400160405280601c81526020017f456e747279506f696e743a204661696c656420746f20726566756e64000000008152508a60000160208101906114329190612352565b73ffffffffffffffffffffffffffffffffffffffff169190611138565b50505050509392505050565b60008161010001358260e001351461148e5761148960e0830135611484486101008601356125d6565b611fef565b610874565b5060e0013590565b600067ffffffffffffffff821115611530576040517f08c379a000000000000000000000000000000000000000000000000000000000815260206004820152602660248201527f53616665436173743a2076616c756520646f65736e27742066697420696e203660448201527f3420626974730000000000000000000000000000000000000000000000000000606482015260840161061e565b5090565b600061153f82612005565b9050600061154c8361201d565b9050600081801561155b575082155b8061156c57508115801561156c5750825b90506115ae81866040518060400160405280601b81526020017f456e747279506f696e743a2057726f6e6720696e697420636f64650000000000815250611c0d565b81610c935773ffffffffffffffffffffffffffffffffffffffff7f000000000000000000000000000000000000000000000000000000000000000016634af63f026115fc604087018761275e565b6040517fffffffff0000000000000000000000000000000000000000000000000000000060e085901b16815261163c92919060208a01359060040161283d565b602060405180830381600087803b15801561165657600080fd5b505af115801561166a573d6000803e3d6000fd5b505050506040513d601f19601f820116820180604052508101906112129190612861565b60006116a161169c8361204b565b6116e2565b6116aa8261204b565b60408051602081019290925230908201524660608201526080015b604051602081830303815290604052805190602001209050919050565b610f27816040516024016116f891815260200190565b604080517fffffffffffffffffffffffffffffffffffffffffffffffffffffffffffffffe08184030181529190526020810180517bffffffffffffffffffffffffffffffffffffffffffffffffffffffff167f27b7cf850000000000000000000000000000000000000000000000000000000017905261217b565b600061177e84611ca0565b611788578161178b565b60005b90504761179b6020860186612352565b73ffffffffffffffffffffffffffffffffffffffff1663fcbac1f48660a001358787866040518563ffffffff1660e01b81526004016117dc939291906128e2565b600060405180830381600088803b1580156117f657600080fd5b5087f193505050508015611808575060015b6118d257611814612a56565b806308c379a0141561186a5750611829612a72565b80611834575061186c565b86816040517f220266b600000000000000000000000000000000000000000000000000000000815260040161061e929190612b1a565b505b3d808015611896576040519150601f19603f3d011682016040523d82523d6000602084013e61189b565b606091505b5086816040517f220266b600000000000000000000000000000000000000000000000000000000815260040161061e929190612b1a565b600061192082886040518060400160405280601d81526020017f456e747279506f696e743a2042616c616e6365206465637265617365640000008152504761196e909392919063ffffffff16565b905061196583821015886040518060400160405280601d81526020017f456e747279506f696e743a20496e636f72726563742070726566756e64000000815250611c0d565b50505050505050565b600080600061197d878761219c565b9150915061198c828686611c0d565b9695505050505050565b60606119a185611ca0565b6119ba5750604080516000815260208101909152611c04565b60006119d16102aa61014088016101208901612352565b9050611a1381886040518060400160405280601e81526020017f456e747279506f696e743a204465706f736974206e6f74207374616b65640000815250611c0d565b611a2e611a2861014088016101208901612352565b856121c2565b611a4061014087016101208801612352565b73ffffffffffffffffffffffffffffffffffffffff16637bfd0845848888886040518563ffffffff1660e01b8152600401611a7d939291906128e2565b60006040518083038187803b158015611a9557600080fd5b5086fa93505050508015611ae957506040513d6000823e601f3d9081017fffffffffffffffffffffffffffffffffffffffffffffffffffffffffffffffe0168201604052611ae69190810190612b3b565b60015b611bfb57611af5612a56565b806308c379a01415611b8a5750611b0a612a72565b80611b155750611b8c565b611b546040518060400160405280601581526020017f4572726f72207769746820726561736f6e3a202564000000000000000000000081525082612233565b87816040517f220266b600000000000000000000000000000000000000000000000000000000815260040161061e929190612b1a565b505b3d808015611bb6576040519150601f19603f3d011682016040523d82523d6000602084013e611bbb565b606091505b50611b546040518060400160405280601881526020017f4572726f7220776974686f757420726561736f6e3a202564000000000000000081525082612233565b9150611c049050565b95945050505050565b82611c485781816040517f220266b600000000000000000000000000000000000000000000000000000000815260040161061e929190612b1a565b505050565b60608315611c5c5750816107ba565b825115611c6c5782518084602001fd5b816040517f08c379a000000000000000000000000000000000000000000000000000000000815260040161061e919061274b565b600080611cb561014084016101208501612352565b73ffffffffffffffffffffffffffffffffffffffff16141592915050565b600080611cdf8761145b565b9050600083611cef576001611cf2565b60005b9050611d0661014089016101208a01612352565b87516040517fa9a2340900000000000000000000000000000000000000000000000000000000815273ffffffffffffffffffffffffffffffffffffffff929092169163a9a2340991611d5f918591908a90600401612bb3565b600060405180830381600087803b158015611d7957600080fd5b505af1925050508015611d8a575060015b611f49576000611d9987611077565b8860400151611da891906125d6565b90506000611db68483612694565b9050611dca6101408b016101208c01612352565b89516040517fa9a2340900000000000000000000000000000000000000000000000000000000815273ffffffffffffffffffffffffffffffffffffffff929092169163a9a2340991611e2491600291908690600401612bb3565b600060405180830381600087803b158015611e3e57600080fd5b505af1925050508015611e4f575060015b611f1957611e5b612a56565b806308c379a01415611eb15750611e70612a72565b80611e7b5750611eb3565b8b816040517f220266b600000000000000000000000000000000000000000000000000000000815260040161061e929190612b1a565b505b3d808015611edd576040519150601f19603f3d011682016040523d82523d6000602084013e611ee2565b606091505b508b816040517f220266b600000000000000000000000000000000000000000000000000000000815260040161061e929190612b1a565b6000611f2489611077565b8a60400151611f3391906125d6565b9050611f3f8582612694565b9550505050611f73565b6000611f5487611077565b8860400151611f6391906125d6565b9050611f6f8382612694565b9350505b6000611fc5848b6040518060400160405280601f81526020017f456e747279506f696e743a20496e73756666696369656e7420726566756e64008152508b6020015161196e909392919063ffffffff16565b9050611fe2611fdc6101408b016101208c01612352565b826122c8565b5050509695505050505050565b6000818310611ffe57816107ba565b5090919050565b6000612014604083018361275e565b15159392505050565b600061087461202f6020840184612352565b73ffffffffffffffffffffffffffffffffffffffff163b151590565b600061205a6020830183612352565b602083013561206c604085018561275e565b60405161207a9291906127c3565b604051908190039020612090606086018661275e565b60405161209e9291906127c3565b604051908190039020608086013560a087013560c088013560e08901356101008a01356120d36101408c016101208d01612352565b6120e16101408d018d61275e565b6040516120ef9291906127c3565b6040519081900381207fffffffffffffffffffffffffffffffffffffffff00000000000000000000000060609c8d1b81166020840152603483019b909b5260548201999099526074810197909752609487019590955260b486019390935260d485019190915260f484015261011483015290931b909116610134830152610148820152610168016116c5565b80516a636f6e736f6c652e6c6f67602083016000808483855afa5050505050565b600080838311156121b2575060009050806121bb565b50600190508183035b9250929050565b73ffffffffffffffffffffffffffffffffffffffff8216600090815260208181526040918290208251808401909352601b83527f5374616b696e673a20496e73756666696369656e74207374616b650000000000918301919091528054909161222d919084906110f2565b90555050565b6122c48282604051602401612249929190612c13565b604080517fffffffffffffffffffffffffffffffffffffffffffffffffffffffffffffffe08184030181529190526020810180517bffffffffffffffffffffffffffffffffffffffffffffffffffffffff167f4b5c42770000000000000000000000000000000000000000000000000000000017905261217b565b5050565b73ffffffffffffffffffffffffffffffffffffffff82166000908152602081905260409020805461222d9083906125d6565b60006020828403121561230c57600080fd5b813563ffffffff811681146107ba57600080fd5b73ffffffffffffffffffffffffffffffffffffffff81168114610f2757600080fd5b803561234d81612320565b919050565b60006020828403121561236457600080fd5b81356107ba81612320565b60006020828403121561238157600080fd5b813567ffffffffffffffff81111561239857600080fd5b820161018081850312156107ba57600080fd5b600080604083850312156123be57600080fd5b82356123c981612320565b946020939093013593505050565b6000806000604084860312156123ec57600080fd5b833567ffffffffffffffff8082111561240457600080fd5b818601915086601f83011261241857600080fd5b81358181111561242757600080fd5b8760208260051b850101111561243c57600080fd5b6020928301955093505084013561245281612320565b809150509250925092565b7f4e487b7100000000000000000000000000000000000000000000000000000000600052604160045260246000fd5b7fffffffffffffffffffffffffffffffffffffffffffffffffffffffffffffffe0601f830116810181811067ffffffffffffffff821117156124d0576124d061245d565b6040525050565b600067ffffffffffffffff8211156124f1576124f161245d565b50601f017fffffffffffffffffffffffffffffffffffffffffffffffffffffffffffffffe01660200190565b6000806040838503121561253057600080fd5b823567ffffffffffffffff81111561254757600080fd5b8301601f8101851361255857600080fd5b8035612563816124d7565b604051612570828261248c565b82815287602084860101111561258557600080fd5b8260208501602083013760006020938201840152979590910135955050505050565b7f4e487b7100000000000000000000000000000000000000000000000000000000600052601160045260246000fd5b600082198211156125e9576125e96125a7565b500190565b7f4e487b7100000000000000000000000000000000000000000000000000000000600052603260045260246000fd5b600082357ffffffffffffffffffffffffffffffffffffffffffffffffffffffffffffffe8183360301811261265157600080fd5b9190910192915050565b60007fffffffffffffffffffffffffffffffffffffffffffffffffffffffffffffffff82141561268d5761268d6125a7565b5060010190565b6000817fffffffffffffffffffffffffffffffffffffffffffffffffffffffffffffffff04831182151516156126cc576126cc6125a7565b500290565b60005b838110156126ec5781810151838201526020016126d4565b838111156126fb576000848401525b50505050565b600081518084526127198160208601602086016126d1565b601f017fffffffffffffffffffffffffffffffffffffffffffffffffffffffffffffffe0169290920160200192915050565b6020815260006107ba6020830184612701565b60008083357fffffffffffffffffffffffffffffffffffffffffffffffffffffffffffffffe184360301811261279357600080fd5b83018035915067ffffffffffffffff8211156127ae57600080fd5b6020019150368190038213156121bb57600080fd5b8183823760009101908152919050565b8381528215156020820152606060408201526000611c046060830184612701565b8183528181602085013750600060208284010152600060207fffffffffffffffffffffffffffffffffffffffffffffffffffffffffffffffe0601f840116840101905092915050565b6040815260006128516040830185876127f4565b9050826020830152949350505050565b60006020828403121561287357600080fd5b81516107ba81612320565b60008083357fffffffffffffffffffffffffffffffffffffffffffffffffffffffffffffffe18436030181126128b357600080fd5b830160208101925035905067ffffffffffffffff8111156128d357600080fd5b8036038313156121bb57600080fd5b60608152612910606082016128f686612342565b73ffffffffffffffffffffffffffffffffffffffff169052565b602084013560808201526000612929604086018661287e565b6101808060a08601526129416101e0860183856127f4565b9250612950606089018961287e565b92507fffffffffffffffffffffffffffffffffffffffffffffffffffffffffffffffa0808786030160c08801526129888585846127f4565b945060808a013560e0880152610100935060a08a013584880152610120915060c08a01358288015261014060e08b013581890152610160858c0135818a01526129d2848d01612342565b73ffffffffffffffffffffffffffffffffffffffff81168a87015295506129fb828d018d61287e565b9650945082898803016101a08a0152612a158787876127f4565b9650612a23818d018d61287e565b96509450505080878603016101c08801525050612a418383836127f4565b60208601979097525050505060400152919050565b600060033d1115612a6f5760046000803e5060005160e01c5b90565b600060443d1015612a805790565b6040517ffffffffffffffffffffffffffffffffffffffffffffffffffffffffffffffffc803d016004833e81513d67ffffffffffffffff8160248401118184111715612ace57505050505090565b8285019150815181811115612ae65750505050505090565b843d8701016020828501011115612b005750505050505090565b612b0f6020828601018761248c565b509095945050505050565b828152604060208201526000612b336040830184612701565b949350505050565b600060208284031215612b4d57600080fd5b815167ffffffffffffffff811115612b6457600080fd5b8201601f81018413612b7557600080fd5b8051612b80816124d7565b604051612b8d828261248c565b828152866020848601011115612ba257600080fd5b61198c8360208301602087016126d1565b600060038510612bec577f4e487b7100000000000000000000000000000000000000000000000000000000600052602160045260246000fd5b84825260606020830152612c036060830185612701565b9050826040830152949350505050565b604081526000612c266040830185612701565b8281036020840152611c04818561270156fea2646970667358221220f0c035cd6da8a6f142d7966043acac8a16ca820fb4b80455413f57cfa1cb68bb64736f6c63430008090033",
  "linkReferences": {},
  "deployedLinkReferences": {}
}