{
  "_format": "hh-sol-artifact-1",
  "contractName": "VerifyingPaymaster",
  "sourceName": "contracts/VerifyingPaymaster.sol",
  "abi": [
    {
      "inputs": [],
      "stateMutability": "nonpayable",
      "type": "constructor"
    },
    {
      "anonymous": false,
      "inputs": [
        {
          "indexed": false,
          "internalType": "address",
          "name": "previousAdmin",
          "type": "address"
        },
        {
          "indexed": false,
          "internalType": "address",
          "name": "newAdmin",
          "type": "address"
        }
      ],
      "name": "AdminChanged",
      "type": "event"
    },
    {
      "anonymous": false,
      "inputs": [
        {
          "indexed": true,
          "internalType": "address",
          "name": "beacon",
          "type": "address"
        }
      ],
      "name": "BeaconUpgraded",
      "type": "event"
    },
    {
      "anonymous": false,
      "inputs": [
        {
          "indexed": false,
          "internalType": "uint8",
          "name": "version",
          "type": "uint8"
        }
      ],
      "name": "Initialized",
      "type": "event"
    },
    {
      "anonymous": false,
      "inputs": [
        {
          "indexed": true,
          "internalType": "address",
          "name": "previousOwner",
          "type": "address"
        },
        {
          "indexed": true,
          "internalType": "address",
          "name": "newOwner",
          "type": "address"
        }
      ],
      "name": "OwnershipTransferred",
      "type": "event"
    },
    {
      "anonymous": false,
      "inputs": [
        {
          "indexed": true,
          "internalType": "address",
          "name": "implementation",
          "type": "address"
        }
      ],
      "name": "Upgraded",
      "type": "event"
    },
    {
      "inputs": [
        {
          "internalType": "contract IEntryPoint",
          "name": "entryPoint",
          "type": "address"
        },
        {
          "internalType": "uint32",
          "name": "extraUnstakeDelaySec",
          "type": "uint32"
        }
      ],
      "name": "addStake",
      "outputs": [],
      "stateMutability": "payable",
      "type": "function"
    },
    {
      "inputs": [
        {
          "internalType": "uint256",
          "name": "_maxCost",
          "type": "uint256"
        }
      ],
      "name": "changeMaxCost",
      "outputs": [],
      "stateMutability": "nonpayable",
      "type": "function"
    },
    {
      "inputs": [
        {
          "internalType": "contract IEntryPoint",
          "name": "entryPoint",
          "type": "address"
        }
      ],
      "name": "deposit",
      "outputs": [],
      "stateMutability": "payable",
      "type": "function"
    },
    {
      "inputs": [
        {
          "internalType": "uint256",
          "name": "",
          "type": "uint256"
        }
      ],
      "name": "entryPoints",
      "outputs": [
        {
          "internalType": "contract IEntryPoint",
          "name": "",
          "type": "address"
        }
      ],
      "stateMutability": "view",
      "type": "function"
    },
    {
      "inputs": [
        {
          "internalType": "contract IEntryPoint",
          "name": "entryPoint",
          "type": "address"
        }
      ],
      "name": "getDeposit",
      "outputs": [
        {
          "internalType": "uint256",
          "name": "",
          "type": "uint256"
        }
      ],
      "stateMutability": "view",
      "type": "function"
    },
    {
      "inputs": [],
      "name": "getEntryPoints",
      "outputs": [
        {
          "internalType": "contract IEntryPoint[]",
          "name": "",
          "type": "address[]"
        }
      ],
      "stateMutability": "view",
      "type": "function"
    },
    {
      "inputs": [
        {
          "components": [
            {
              "internalType": "address",
              "name": "sender",
              "type": "address"
            },
            {
              "internalType": "uint256",
              "name": "nonce",
              "type": "uint256"
            },
            {
              "internalType": "bytes",
              "name": "initCode",
              "type": "bytes"
            },
            {
              "internalType": "bytes",
              "name": "callData",
              "type": "bytes"
            },
            {
              "internalType": "uint256",
              "name": "callGas",
              "type": "uint256"
            },
            {
              "internalType": "uint256",
              "name": "verificationGas",
              "type": "uint256"
            },
            {
              "internalType": "uint256",
              "name": "preVerificationGas",
              "type": "uint256"
            },
            {
              "internalType": "uint256",
              "name": "maxFeePerGas",
              "type": "uint256"
            },
            {
              "internalType": "uint256",
              "name": "maxPriorityFeePerGas",
              "type": "uint256"
            },
            {
              "internalType": "address",
              "name": "paymaster",
              "type": "address"
            },
            {
              "internalType": "bytes",
              "name": "paymasterData",
              "type": "bytes"
            },
            {
              "internalType": "bytes",
              "name": "signature",
              "type": "bytes"
            }
          ],
          "internalType": "struct UserOperation",
          "name": "userOp",
          "type": "tuple"
        }
      ],
      "name": "getHash",
      "outputs": [
        {
          "internalType": "bytes32",
          "name": "",
          "type": "bytes32"
        }
      ],
      "stateMutability": "pure",
      "type": "function"
    },
    {
      "inputs": [
        {
          "internalType": "contract IEntryPoint[]",
          "name": "_entryPoints",
          "type": "address[]"
        },
        {
          "internalType": "address",
          "name": "_verifyingSigner",
          "type": "address"
        },
        {
          "internalType": "uint256",
          "name": "_maxCost",
          "type": "uint256"
        },
        {
          "internalType": "string",
          "name": "_name",
          "type": "string"
        }
      ],
      "name": "initialize",
      "outputs": [],
      "stateMutability": "nonpayable",
      "type": "function"
    },
    {
      "inputs": [],
      "name": "maxCost",
      "outputs": [
        {
          "internalType": "uint256",
          "name": "",
          "type": "uint256"
        }
      ],
      "stateMutability": "view",
      "type": "function"
    },
    {
      "inputs": [],
      "name": "name",
      "outputs": [
        {
          "internalType": "string",
          "name": "",
          "type": "string"
        }
      ],
      "stateMutability": "view",
      "type": "function"
    },
    {
      "inputs": [],
      "name": "owner",
      "outputs": [
        {
          "internalType": "address",
          "name": "",
          "type": "address"
        }
      ],
      "stateMutability": "view",
      "type": "function"
    },
    {
      "inputs": [
        {
          "internalType": "enum IPaymaster.PostOpMode",
          "name": "mode",
          "type": "uint8"
        },
        {
          "internalType": "bytes",
          "name": "context",
          "type": "bytes"
        },
        {
          "internalType": "uint256",
          "name": "actualGasCost",
          "type": "uint256"
        }
      ],
      "name": "postOp",
      "outputs": [],
      "stateMutability": "nonpayable",
      "type": "function"
    },
    {
      "inputs": [],
      "name": "proxiableUUID",
      "outputs": [
        {
          "internalType": "bytes32",
          "name": "",
          "type": "bytes32"
        }
      ],
      "stateMutability": "view",
      "type": "function"
    },
    {
      "inputs": [],
      "name": "renounceOwnership",
      "outputs": [],
      "stateMutability": "nonpayable",
      "type": "function"
    },
    {
      "inputs": [
        {
          "internalType": "contract IEntryPoint[]",
          "name": "_entryPoints",
          "type": "address[]"
        }
      ],
      "name": "setEntryPoint",
      "outputs": [],
      "stateMutability": "nonpayable",
      "type": "function"
    },
    {
      "inputs": [
        {
          "internalType": "address",
          "name": "newOwner",
          "type": "address"
        }
      ],
      "name": "transferOwnership",
      "outputs": [],
      "stateMutability": "nonpayable",
      "type": "function"
    },
    {
      "inputs": [
        {
          "internalType": "contract IEntryPoint",
          "name": "entryPoint",
          "type": "address"
        }
      ],
      "name": "unlockStake",
      "outputs": [],
      "stateMutability": "nonpayable",
      "type": "function"
    },
    {
      "inputs": [
        {
          "internalType": "address",
          "name": "newImplementation",
          "type": "address"
        }
      ],
      "name": "upgradeTo",
      "outputs": [],
      "stateMutability": "nonpayable",
      "type": "function"
    },
    {
      "inputs": [
        {
          "internalType": "address",
          "name": "newImplementation",
          "type": "address"
        },
        {
          "internalType": "bytes",
          "name": "data",
          "type": "bytes"
        }
      ],
      "name": "upgradeToAndCall",
      "outputs": [],
      "stateMutability": "payable",
      "type": "function"
    },
    {
      "inputs": [
        {
          "components": [
            {
              "internalType": "address",
              "name": "sender",
              "type": "address"
            },
            {
              "internalType": "uint256",
              "name": "nonce",
              "type": "uint256"
            },
            {
              "internalType": "bytes",
              "name": "initCode",
              "type": "bytes"
            },
            {
              "internalType": "bytes",
              "name": "callData",
              "type": "bytes"
            },
            {
              "internalType": "uint256",
              "name": "callGas",
              "type": "uint256"
            },
            {
              "internalType": "uint256",
              "name": "verificationGas",
              "type": "uint256"
            },
            {
              "internalType": "uint256",
              "name": "preVerificationGas",
              "type": "uint256"
            },
            {
              "internalType": "uint256",
              "name": "maxFeePerGas",
              "type": "uint256"
            },
            {
              "internalType": "uint256",
              "name": "maxPriorityFeePerGas",
              "type": "uint256"
            },
            {
              "internalType": "address",
              "name": "paymaster",
              "type": "address"
            },
            {
              "internalType": "bytes",
              "name": "paymasterData",
              "type": "bytes"
            },
            {
              "internalType": "bytes",
              "name": "signature",
              "type": "bytes"
            }
          ],
          "internalType": "struct UserOperation",
          "name": "userOp",
          "type": "tuple"
        },
        {
          "internalType": "bytes32",
          "name": "requestId",
          "type": "bytes32"
        },
        {
          "internalType": "uint256",
          "name": "maxCost",
          "type": "uint256"
        }
      ],
      "name": "validatePaymasterUserOp",
      "outputs": [
        {
          "internalType": "bytes",
          "name": "context",
          "type": "bytes"
        }
      ],
      "stateMutability": "view",
      "type": "function"
    },
    {
      "inputs": [],
      "name": "verifyingSigner",
      "outputs": [
        {
          "internalType": "address",
          "name": "",
          "type": "address"
        }
      ],
      "stateMutability": "view",
      "type": "function"
    },
    {
      "inputs": [
        {
          "internalType": "contract IEntryPoint",
          "name": "entryPoint",
          "type": "address"
        },
        {
          "internalType": "address payable",
          "name": "withdrawAddress",
          "type": "address"
        }
      ],
      "name": "withdrawStake",
      "outputs": [],
      "stateMutability": "nonpayable",
      "type": "function"
    },
    {
      "inputs": [
        {
          "internalType": "contract IEntryPoint",
          "name": "entryPoint",
          "type": "address"
        },
        {
          "internalType": "address payable",
          "name": "withdrawAddress",
          "type": "address"
        },
        {
          "internalType": "uint256",
          "name": "amount",
          "type": "uint256"
        }
      ],
      "name": "withdrawTo",
      "outputs": [],
      "stateMutability": "nonpayable",
      "type": "function"
    }
  ],
  "bytecode": "0x60a06040523073ffffffffffffffffffffffffffffffffffffffff1660809073ffffffffffffffffffffffffffffffffffffffff168152503480156200004457600080fd5b5062000065620000596200006b60201b60201c565b6200007360201b60201c565b62000137565b600033905090565b60008060009054906101000a900473ffffffffffffffffffffffffffffffffffffffff169050816000806101000a81548173ffffffffffffffffffffffffffffffffffffffff021916908373ffffffffffffffffffffffffffffffffffffffff1602179055508173ffffffffffffffffffffffffffffffffffffffff168173ffffffffffffffffffffffffffffffffffffffff167f8be0079c531659141344cd1fd0a4f28419497f9722a3daafe3b4186f6b6457e060405160405180910390a35050565b608051613cbd6200016f600039600081816105e5015281816106740152818161099501528181610a240152610ad40152613cbd6000f3fe6080604052600436106101405760003560e01c80637bfd0845116100b6578063d057490b1161006f578063d057490b14610418578063e1254fba14610443578063ecdd628614610480578063f2fde38b146104a9578063f340fa01146104d2578063ffa17ae4146104ee57610140565b80637bfd0845146102f8578063813b3839146103355780638da5cb5b14610372578063a9a234091461039d578063b36f9705146103c6578063c3b35a7e146103ef57610140565b80633ed4c20f116101085780633ed4c20f1461021857806345171159146102555780634a1ce599146102715780634f1ef2861461029a57806352d1902d146102b6578063715018a6146102e157610140565b8063042a8e4a1461014557806306fdde031461016e57806313517fea1461019957806323d9ac9b146101c45780633659cfe6146101ef575b600080fd5b34801561015157600080fd5b5061016c60048036038101906101679190612173565b610517565b005b34801561017a57600080fd5b50610183610529565b6040516101909190612239565b60405180910390f35b3480156101a557600080fd5b506101ae6105b7565b6040516101bb919061226a565b60405180910390f35b3480156101d057600080fd5b506101d96105bd565b6040516101e691906122c6565b60405180910390f35b3480156101fb57600080fd5b506102166004803603810190610211919061230d565b6105e3565b005b34801561022457600080fd5b5061023f600480360381019061023a9190612173565b61076c565b60405161024c9190612399565b60405180910390f35b61026f600480360381019061026a919061242e565b6107ab565b005b34801561027d57600080fd5b506102986004803603810190610293919061246e565b6108de565b005b6102b460048036038101906102af91906125d0565b610993565b005b3480156102c257600080fd5b506102cb610ad0565b6040516102d89190612645565b60405180910390f35b3480156102ed57600080fd5b506102f6610b89565b005b34801561030457600080fd5b5061031f600480360381019061031a91906126b1565b610b9d565b60405161032c9190612775565b60405180910390f35b34801561034157600080fd5b5061035c60048036038101906103579190612797565b610bfd565b6040516103699190612645565b60405180910390f35b34801561037e57600080fd5b50610387610cc7565b60405161039491906122c6565b60405180910390f35b3480156103a957600080fd5b506103c460048036038101906103bf9190612865565b610cf0565b005b3480156103d257600080fd5b506103ed60048036038101906103e89190612917565b610d4c565b005b3480156103fb57600080fd5b5061041660048036038101906104119190612957565b610e0d565b005b34801561042457600080fd5b5061042d610ed1565b60405161043a9190612a68565b60405180910390f35b34801561044f57600080fd5b5061046a6004803603810190610465919061246e565b610f5f565b604051610477919061226a565b60405180910390f35b34801561048c57600080fd5b506104a760048036038101906104a29190612ba3565b61102c565b005b3480156104b557600080fd5b506104d060048036038101906104cb919061230d565b6111d0565b005b6104ec60048036038101906104e7919061246e565b611254565b005b3480156104fa57600080fd5b5061051560048036038101906105109190612c47565b61130d565b005b61051f61132f565b8060038190555050565b6004805461053690612cbf565b80601f016020809104026020016040519081016040528092919081815260200182805461056290612cbf565b80156105af5780601f10610584576101008083540402835291602001916105af565b820191906000526020600020905b81548152906001019060200180831161059257829003601f168201915b505050505081565b60035481565b600260009054906101000a900473ffffffffffffffffffffffffffffffffffffffff1681565b7f000000000000000000000000000000000000000000000000000000000000000073ffffffffffffffffffffffffffffffffffffffff163073ffffffffffffffffffffffffffffffffffffffff161415610672576040517f08c379a000000000000000000000000000000000000000000000000000000000815260040161066990612d63565b60405180910390fd5b7f000000000000000000000000000000000000000000000000000000000000000073ffffffffffffffffffffffffffffffffffffffff166106b16113ad565b73ffffffffffffffffffffffffffffffffffffffff1614610707576040517f08c379a00000000000000000000000000000000000000000000000000000000081526004016106fe90612df5565b60405180910390fd5b61071081611404565b61076981600067ffffffffffffffff81111561072f5761072e6124a5565b5b6040519080825280601f01601f1916602001820160405280156107615781602001600182028036833780820191505090505b50600061140f565b50565b6001818154811061077c57600080fd5b906000526020600020016000915054906101000a900473ffffffffffffffffffffffffffffffffffffffff1681565b816107b58161157d565b6107f4576040517f08c379a00000000000000000000000000000000000000000000000000000000081526004016107eb90612e87565b60405180910390fd5b8273ffffffffffffffffffffffffffffffffffffffff16630396cb6034848673ffffffffffffffffffffffffffffffffffffffff1663390b99786040518163ffffffff1660e01b8152600401602060405180830381865afa15801561085d573d6000803e3d6000fd5b505050506040513d601f19601f820116820180604052508101906108819190612ebc565b61088b9190612f18565b6040518363ffffffff1660e01b81526004016108a79190612f61565b6000604051808303818588803b1580156108c057600080fd5b505af11580156108d4573d6000803e3d6000fd5b5050505050505050565b6108e661132f565b806108f08161157d565b61092f576040517f08c379a000000000000000000000000000000000000000000000000000000000815260040161092690612e87565b60405180910390fd5b8173ffffffffffffffffffffffffffffffffffffffff1663bb9fe6bf6040518163ffffffff1660e01b8152600401600060405180830381600087803b15801561097757600080fd5b505af115801561098b573d6000803e3d6000fd5b505050505050565b7f000000000000000000000000000000000000000000000000000000000000000073ffffffffffffffffffffffffffffffffffffffff163073ffffffffffffffffffffffffffffffffffffffff161415610a22576040517f08c379a0000000000000000000000000000000000000000000000000000000008152600401610a1990612d63565b60405180910390fd5b7f000000000000000000000000000000000000000000000000000000000000000073ffffffffffffffffffffffffffffffffffffffff16610a616113ad565b73ffffffffffffffffffffffffffffffffffffffff1614610ab7576040517f08c379a0000000000000000000000000000000000000000000000000000000008152600401610aae90612df5565b60405180910390fd5b610ac082611404565b610acc8282600161140f565b5050565b60007f000000000000000000000000000000000000000000000000000000000000000073ffffffffffffffffffffffffffffffffffffffff163073ffffffffffffffffffffffffffffffffffffffff1614610b60576040517f08c379a0000000000000000000000000000000000000000000000000000000008152600401610b5790612fee565b60405180910390fd5b7f360894a13ba1a3210667c828492db98dca3e2076cc3735a920a3ca505d382bbc60001b905090565b610b9161132f565b610b9b600061162c565b565b606033610ba98161157d565b610be8576040517f08c379a0000000000000000000000000000000000000000000000000000000008152600401610bdf90612e87565b60405180910390fd5b610bf38585856116f0565b9150509392505050565b6000816000016020810190610c12919061230d565b8260200135838060400190610c27919061301d565b604051610c359291906130b0565b6040518091039020848060600190610c4d919061301d565b604051610c5b9291906130b0565b604051809103902085608001358660a001358760c001358860e001358961010001358a610120016020810190610c91919061230d565b604051602001610caa9a999897969594939291906130c9565b604051602081830303815290604052805190602001209050919050565b60008060009054906101000a900473ffffffffffffffffffffffffffffffffffffffff16905090565b33610cfa8161157d565b610d39576040517f08c379a0000000000000000000000000000000000000000000000000000000008152600401610d3090612e87565b60405180910390fd5b610d45858585856118c0565b5050505050565b610d5461132f565b81610d5e8161157d565b610d9d576040517f08c379a0000000000000000000000000000000000000000000000000000000008152600401610d9490612e87565b60405180910390fd5b8273ffffffffffffffffffffffffffffffffffffffff1663c23a5cea836040518263ffffffff1660e01b8152600401610dd69190613174565b600060405180830381600087803b158015610df057600080fd5b505af1158015610e04573d6000803e3d6000fd5b50505050505050565b610e1561132f565b82610e1f8161157d565b610e5e576040517f08c379a0000000000000000000000000000000000000000000000000000000008152600401610e5590612e87565b60405180910390fd5b8373ffffffffffffffffffffffffffffffffffffffff1663205c287884846040518363ffffffff1660e01b8152600401610e9992919061318f565b600060405180830381600087803b158015610eb357600080fd5b505af1158015610ec7573d6000803e3d6000fd5b5050505050505050565b60606001805480602002602001604051908101604052809291908181526020018280548015610f5557602002820191906000526020600020905b8160009054906101000a900473ffffffffffffffffffffffffffffffffffffffff1673ffffffffffffffffffffffffffffffffffffffff1681526020019060010190808311610f0b575b5050505050905090565b600081610f6b8161157d565b610faa576040517f08c379a0000000000000000000000000000000000000000000000000000000008152600401610fa190612e87565b60405180910390fd5b8273ffffffffffffffffffffffffffffffffffffffff166370a08231306040518263ffffffff1660e01b8152600401610fe391906122c6565b602060405180830381865afa158015611000573d6000803e3d6000fd5b505050506040513d601f19601f8201168201806040525081019061102491906131cd565b915050919050565b60008060159054906101000a900460ff1615905080801561105f57506001600060149054906101000a900460ff1660ff16105b8061108e575061106e306118c6565b15801561108d57506001600060149054906101000a900460ff1660ff16145b5b6110cd576040517f08c379a00000000000000000000000000000000000000000000000000000000081526004016110c49061326c565b60405180910390fd5b6001600060146101000a81548160ff021916908360ff160217905550801561110b576001600060156101000a81548160ff0219169083151502179055505b61111586866118e9565b84600260006101000a81548173ffffffffffffffffffffffffffffffffffffffff021916908373ffffffffffffffffffffffffffffffffffffffff1602179055508360038190555082826004919061116e929190611ffc565b5080156111c85760008060156101000a81548160ff0219169083151502179055507f7f26b83ff96e1f2b6a682f133852f6798a09c465da95921460cefb384740249860016040516111bf91906132d4565b60405180910390a15b505050505050565b6111d861132f565b600073ffffffffffffffffffffffffffffffffffffffff168173ffffffffffffffffffffffffffffffffffffffff161415611248576040517f08c379a000000000000000000000000000000000000000000000000000000000815260040161123f90613361565b60405180910390fd5b6112518161162c565b50565b8061125e8161157d565b61129d576040517f08c379a000000000000000000000000000000000000000000000000000000000815260040161129490612e87565b60405180910390fd5b8173ffffffffffffffffffffffffffffffffffffffff1663b760faf934306040518363ffffffff1660e01b81526004016112d791906122c6565b6000604051808303818588803b1580156112f057600080fd5b505af1158015611304573d6000803e3d6000fd5b50505050505050565b61131561132f565b806001908051906020019061132b929190612082565b5050565b61133761190d565b73ffffffffffffffffffffffffffffffffffffffff16611355610cc7565b73ffffffffffffffffffffffffffffffffffffffff16146113ab576040517f08c379a00000000000000000000000000000000000000000000000000000000081526004016113a2906133cd565b60405180910390fd5b565b60006113db7f360894a13ba1a3210667c828492db98dca3e2076cc3735a920a3ca505d382bbc60001b611915565b60000160009054906101000a900473ffffffffffffffffffffffffffffffffffffffff16905090565b61140c61132f565b50565b61143b7f4910fdfa16fed3260ed0e7147f7cc6da11a60208b5b9406d12a635614ffd914360001b61191f565b60000160009054906101000a900460ff161561145f5761145a83611929565b611578565b8273ffffffffffffffffffffffffffffffffffffffff166352d1902d6040518163ffffffff1660e01b8152600401602060405180830381865afa9250505080156114c757506040513d601f19601f820116820180604052508101906114c49190613402565b60015b611506576040517f08c379a00000000000000000000000000000000000000000000000000000000081526004016114fd906134a1565b60405180910390fd5b7f360894a13ba1a3210667c828492db98dca3e2076cc3735a920a3ca505d382bbc60001b811461156b576040517f08c379a000000000000000000000000000000000000000000000000000000000815260040161156290613533565b60405180910390fd5b506115778383836119e2565b5b505050565b600080600090505b600180549050811015611621578273ffffffffffffffffffffffffffffffffffffffff16600182815481106115bd576115bc613553565b5b9060005260206000200160009054906101000a900473ffffffffffffffffffffffffffffffffffffffff1673ffffffffffffffffffffffffffffffffffffffff16141561160e576001915050611627565b808061161990613582565b915050611585565b60009150505b919050565b60008060009054906101000a900473ffffffffffffffffffffffffffffffffffffffff169050816000806101000a81548173ffffffffffffffffffffffffffffffffffffffff021916908373ffffffffffffffffffffffffffffffffffffffff1602179055508173ffffffffffffffffffffffffffffffffffffffff168173ffffffffffffffffffffffffffffffffffffffff167f8be0079c531659141344cd1fd0a4f28419497f9722a3daafe3b4186f6b6457e060405160405180910390a35050565b606060006116fd85610bfd565b9050600085806101400190611712919061301d565b90509050600354841061175a576040517f08c379a00000000000000000000000000000000000000000000000000000000081526004016117519061363d565b60405180910390fd5b60408114806117695750604181145b6117a8576040517f08c379a000000000000000000000000000000000000000000000000000000000815260040161179f906136cf565b60405180910390fd5b611816868061014001906117bc919061301d565b8080601f016020809104026020016040519081016040528093929190818152602001838380828437600081840152601f19601f8201169050808301925050505050505061180884611a0e565b611a3e90919063ffffffff16565b73ffffffffffffffffffffffffffffffffffffffff16600260009054906101000a900473ffffffffffffffffffffffffffffffffffffffff1673ffffffffffffffffffffffffffffffffffffffff16146118a5576040517f08c379a000000000000000000000000000000000000000000000000000000000815260040161189c90613761565b60405180910390fd5b60405180602001604052806000815250925050509392505050565b50505050565b6000808273ffffffffffffffffffffffffffffffffffffffff163b119050919050565b81600190805190602001906118ff929190612082565b506119098161162c565b5050565b600033905090565b6000819050919050565b6000819050919050565b61193281611a65565b611971576040517f08c379a0000000000000000000000000000000000000000000000000000000008152600401611968906137f3565b60405180910390fd5b8061199e7f360894a13ba1a3210667c828492db98dca3e2076cc3735a920a3ca505d382bbc60001b611915565b60000160006101000a81548173ffffffffffffffffffffffffffffffffffffffff021916908373ffffffffffffffffffffffffffffffffffffffff16021790555050565b6119eb83611a88565b6000825111806119f85750805b15611a0957611a078383611ad7565b505b505050565b600081604051602001611a21919061388b565b604051602081830303815290604052805190602001209050919050565b6000806000611a4d8585611b04565b91509150611a5a81611b87565b819250505092915050565b6000808273ffffffffffffffffffffffffffffffffffffffff163b119050919050565b611a9181611929565b8073ffffffffffffffffffffffffffffffffffffffff167fbc7cd75a20ee27fd9adebab32041f755214dbc6bffa90cc0225b39da2e5c2d3b60405160405180910390a250565b6060611afc8383604051806060016040528060278152602001613c6160279139611d5c565b905092915050565b600080604183511415611b465760008060006020860151925060408601519150606086015160001a9050611b3a87828585611e29565b94509450505050611b80565b604083511415611b77576000806020850151915060408501519050611b6c868383611f36565b935093505050611b80565b60006002915091505b9250929050565b60006004811115611b9b57611b9a6138b1565b5b816004811115611bae57611bad6138b1565b5b1415611bb957611d59565b60016004811115611bcd57611bcc6138b1565b5b816004811115611be057611bdf6138b1565b5b1415611c21576040517f08c379a0000000000000000000000000000000000000000000000000000000008152600401611c189061392c565b60405180910390fd5b60026004811115611c3557611c346138b1565b5b816004811115611c4857611c476138b1565b5b1415611c89576040517f08c379a0000000000000000000000000000000000000000000000000000000008152600401611c8090613998565b60405180910390fd5b60036004811115611c9d57611c9c6138b1565b5b816004811115611cb057611caf6138b1565b5b1415611cf1576040517f08c379a0000000000000000000000000000000000000000000000000000000008152600401611ce890613a2a565b60405180910390fd5b600480811115611d0457611d036138b1565b5b816004811115611d1757611d166138b1565b5b1415611d58576040517f08c379a0000000000000000000000000000000000000000000000000000000008152600401611d4f90613abc565b60405180910390fd5b5b50565b6060611d6784611a65565b611da6576040517f08c379a0000000000000000000000000000000000000000000000000000000008152600401611d9d90613b4e565b60405180910390fd5b6000808573ffffffffffffffffffffffffffffffffffffffff1685604051611dce9190613b9f565b600060405180830381855af49150503d8060008114611e09576040519150601f19603f3d011682016040523d82523d6000602084013e611e0e565b606091505b5091509150611e1e828286611f95565b925050509392505050565b6000807f7fffffffffffffffffffffffffffffff5d576e7357a4501ddfe92f46681b20a08360001c1115611e64576000600391509150611f2d565b601b8560ff1614158015611e7c5750601c8560ff1614155b15611e8e576000600491509150611f2d565b600060018787878760405160008152602001604052604051611eb39493929190613bc5565b6020604051602081039080840390855afa158015611ed5573d6000803e3d6000fd5b505050602060405103519050600073ffffffffffffffffffffffffffffffffffffffff168173ffffffffffffffffffffffffffffffffffffffff161415611f2457600060019250925050611f2d565b80600092509250505b94509492505050565b60008060007f7fffffffffffffffffffffffffffffffffffffffffffffffffffffffffffffff60001b841690506000601b60ff8660001c901c611f799190613c0a565b9050611f8787828885611e29565b935093505050935093915050565b60608315611fa557829050611ff5565b600083511115611fb85782518084602001fd5b816040517f08c379a0000000000000000000000000000000000000000000000000000000008152600401611fec9190612239565b60405180910390fd5b9392505050565b82805461200890612cbf565b90600052602060002090601f01602090048101928261202a5760008555612071565b82601f1061204357803560ff1916838001178555612071565b82800160010185558215612071579182015b82811115612070578235825591602001919060010190612055565b5b50905061207e919061210c565b5090565b8280548282559060005260206000209081019282156120fb579160200282015b828111156120fa5782518260006101000a81548173ffffffffffffffffffffffffffffffffffffffff021916908373ffffffffffffffffffffffffffffffffffffffff160217905550916020019190600101906120a2565b5b509050612108919061210c565b5090565b5b8082111561212557600081600090555060010161210d565b5090565b6000604051905090565b600080fd5b600080fd5b6000819050919050565b6121508161213d565b811461215b57600080fd5b50565b60008135905061216d81612147565b92915050565b60006020828403121561218957612188612133565b5b60006121978482850161215e565b91505092915050565b600081519050919050565b600082825260208201905092915050565b60005b838110156121da5780820151818401526020810190506121bf565b838111156121e9576000848401525b50505050565b6000601f19601f8301169050919050565b600061220b826121a0565b61221581856121ab565b93506122258185602086016121bc565b61222e816121ef565b840191505092915050565b600060208201905081810360008301526122538184612200565b905092915050565b6122648161213d565b82525050565b600060208201905061227f600083018461225b565b92915050565b600073ffffffffffffffffffffffffffffffffffffffff82169050919050565b60006122b082612285565b9050919050565b6122c0816122a5565b82525050565b60006020820190506122db60008301846122b7565b92915050565b6122ea816122a5565b81146122f557600080fd5b50565b600081359050612307816122e1565b92915050565b60006020828403121561232357612322612133565b5b6000612331848285016122f8565b91505092915050565b6000819050919050565b600061235f61235a61235584612285565b61233a565b612285565b9050919050565b600061237182612344565b9050919050565b600061238382612366565b9050919050565b61239381612378565b82525050565b60006020820190506123ae600083018461238a565b92915050565b60006123bf826122a5565b9050919050565b6123cf816123b4565b81146123da57600080fd5b50565b6000813590506123ec816123c6565b92915050565b600063ffffffff82169050919050565b61240b816123f2565b811461241657600080fd5b50565b60008135905061242881612402565b92915050565b6000806040838503121561244557612444612133565b5b6000612453858286016123dd565b925050602061246485828601612419565b9150509250929050565b60006020828403121561248457612483612133565b5b6000612492848285016123dd565b91505092915050565b600080fd5b600080fd5b7f4e487b7100000000000000000000000000000000000000000000000000000000600052604160045260246000fd5b6124dd826121ef565b810181811067ffffffffffffffff821117156124fc576124fb6124a5565b5b80604052505050565b600061250f612129565b905061251b82826124d4565b919050565b600067ffffffffffffffff82111561253b5761253a6124a5565b5b612544826121ef565b9050602081019050919050565b82818337600083830152505050565b600061257361256e84612520565b612505565b90508281526020810184848401111561258f5761258e6124a0565b5b61259a848285612551565b509392505050565b600082601f8301126125b7576125b661249b565b5b81356125c7848260208601612560565b91505092915050565b600080604083850312156125e7576125e6612133565b5b60006125f5858286016122f8565b925050602083013567ffffffffffffffff81111561261657612615612138565b5b612622858286016125a2565b9150509250929050565b6000819050919050565b61263f8161262c565b82525050565b600060208201905061265a6000830184612636565b92915050565b600080fd5b6000610180828403121561267c5761267b612660565b5b81905092915050565b61268e8161262c565b811461269957600080fd5b50565b6000813590506126ab81612685565b92915050565b6000806000606084860312156126ca576126c9612133565b5b600084013567ffffffffffffffff8111156126e8576126e7612138565b5b6126f486828701612665565b93505060206127058682870161269c565b92505060406127168682870161215e565b9150509250925092565b600081519050919050565b600082825260208201905092915050565b600061274782612720565b612751818561272b565b93506127618185602086016121bc565b61276a816121ef565b840191505092915050565b6000602082019050818103600083015261278f818461273c565b905092915050565b6000602082840312156127ad576127ac612133565b5b600082013567ffffffffffffffff8111156127cb576127ca612138565b5b6127d784828501612665565b91505092915050565b600381106127ed57600080fd5b50565b6000813590506127ff816127e0565b92915050565b600080fd5b600080fd5b60008083601f8401126128255761282461249b565b5b8235905067ffffffffffffffff81111561284257612841612805565b5b60208301915083600182028301111561285e5761285d61280a565b5b9250929050565b6000806000806060858703121561287f5761287e612133565b5b600061288d878288016127f0565b945050602085013567ffffffffffffffff8111156128ae576128ad612138565b5b6128ba8782880161280f565b935093505060406128cd8782880161215e565b91505092959194509250565b60006128e482612285565b9050919050565b6128f4816128d9565b81146128ff57600080fd5b50565b600081359050612911816128eb565b92915050565b6000806040838503121561292e5761292d612133565b5b600061293c858286016123dd565b925050602061294d85828601612902565b9150509250929050565b6000806000606084860312156129705761296f612133565b5b600061297e868287016123dd565b935050602061298f86828701612902565b92505060406129a08682870161215e565b9150509250925092565b600081519050919050565b600082825260208201905092915050565b6000819050602082019050919050565b6129df81612378565b82525050565b60006129f183836129d6565b60208301905092915050565b6000602082019050919050565b6000612a15826129aa565b612a1f81856129b5565b9350612a2a836129c6565b8060005b83811015612a5b578151612a4288826129e5565b9750612a4d836129fd565b925050600181019050612a2e565b5085935050505092915050565b60006020820190508181036000830152612a828184612a0a565b905092915050565b600067ffffffffffffffff821115612aa557612aa46124a5565b5b602082029050602081019050919050565b6000612ac9612ac484612a8a565b612505565b90508083825260208201905060208402830185811115612aec57612aeb61280a565b5b835b81811015612b155780612b0188826123dd565b845260208401935050602081019050612aee565b5050509392505050565b600082601f830112612b3457612b3361249b565b5b8135612b44848260208601612ab6565b91505092915050565b60008083601f840112612b6357612b6261249b565b5b8235905067ffffffffffffffff811115612b8057612b7f612805565b5b602083019150836001820283011115612b9c57612b9b61280a565b5b9250929050565b600080600080600060808688031215612bbf57612bbe612133565b5b600086013567ffffffffffffffff811115612bdd57612bdc612138565b5b612be988828901612b1f565b9550506020612bfa888289016122f8565b9450506040612c0b8882890161215e565b935050606086013567ffffffffffffffff811115612c2c57612c2b612138565b5b612c3888828901612b4d565b92509250509295509295909350565b600060208284031215612c5d57612c5c612133565b5b600082013567ffffffffffffffff811115612c7b57612c7a612138565b5b612c8784828501612b1f565b91505092915050565b7f4e487b7100000000000000000000000000000000000000000000000000000000600052602260045260246000fd5b60006002820490506001821680612cd757607f821691505b60208210811415612ceb57612cea612c90565b5b50919050565b7f46756e6374696f6e206d7573742062652063616c6c6564207468726f7567682060008201527f64656c656761746563616c6c0000000000000000000000000000000000000000602082015250565b6000612d4d602c836121ab565b9150612d5882612cf1565b604082019050919050565b60006020820190508181036000830152612d7c81612d40565b9050919050565b7f46756e6374696f6e206d7573742062652063616c6c6564207468726f7567682060008201527f6163746976652070726f78790000000000000000000000000000000000000000602082015250565b6000612ddf602c836121ab565b9150612dea82612d83565b604082019050919050565b60006020820190508181036000830152612e0e81612dd2565b9050919050565b7f496e76616c696420456e747279506f696e74436f6e74726163742c2049456e7460008201527f7279506f696e74206973206e6f7420617574686f726973656400000000000000602082015250565b6000612e716039836121ab565b9150612e7c82612e15565b604082019050919050565b60006020820190508181036000830152612ea081612e64565b9050919050565b600081519050612eb681612402565b92915050565b600060208284031215612ed257612ed1612133565b5b6000612ee084828501612ea7565b91505092915050565b7f4e487b7100000000000000000000000000000000000000000000000000000000600052601160045260246000fd5b6000612f23826123f2565b9150612f2e836123f2565b92508263ffffffff03821115612f4757612f46612ee9565b5b828201905092915050565b612f5b816123f2565b82525050565b6000602082019050612f766000830184612f52565b92915050565b7f555550535570677261646561626c653a206d757374206e6f742062652063616c60008201527f6c6564207468726f7567682064656c656761746563616c6c0000000000000000602082015250565b6000612fd86038836121ab565b9150612fe382612f7c565b604082019050919050565b6000602082019050818103600083015261300781612fcb565b9050919050565b600080fd5b600080fd5b600080fd5b6000808335600160200384360303811261303a5761303961300e565b5b80840192508235915067ffffffffffffffff82111561305c5761305b613013565b5b60208301925060018202360383131561307857613077613018565b5b509250929050565b600081905092915050565b60006130978385613080565b93506130a4838584612551565b82840190509392505050565b60006130bd82848661308b565b91508190509392505050565b6000610140820190506130df600083018d6122b7565b6130ec602083018c61225b565b6130f9604083018b612636565b613106606083018a612636565b613113608083018961225b565b61312060a083018861225b565b61312d60c083018761225b565b61313a60e083018661225b565b61314861010083018561225b565b6131566101208301846122b7565b9b9a5050505050505050505050565b61316e816128d9565b82525050565b60006020820190506131896000830184613165565b92915050565b60006040820190506131a46000830185613165565b6131b1602083018461225b565b9392505050565b6000815190506131c781612147565b92915050565b6000602082840312156131e3576131e2612133565b5b60006131f1848285016131b8565b91505092915050565b7f496e697469616c697a61626c653a20636f6e747261637420697320616c72656160008201527f647920696e697469616c697a6564000000000000000000000000000000000000602082015250565b6000613256602e836121ab565b9150613261826131fa565b604082019050919050565b6000602082019050818103600083015261328581613249565b9050919050565b6000819050919050565b600060ff82169050919050565b60006132be6132b96132b48461328c565b61233a565b613296565b9050919050565b6132ce816132a3565b82525050565b60006020820190506132e960008301846132c5565b92915050565b7f4f776e61626c653a206e6577206f776e657220697320746865207a65726f206160008201527f6464726573730000000000000000000000000000000000000000000000000000602082015250565b600061334b6026836121ab565b9150613356826132ef565b604082019050919050565b6000602082019050818103600083015261337a8161333e565b9050919050565b7f4f776e61626c653a2063616c6c6572206973206e6f7420746865206f776e6572600082015250565b60006133b76020836121ab565b91506133c282613381565b602082019050919050565b600060208201905081810360008301526133e6816133aa565b9050919050565b6000815190506133fc81612685565b92915050565b60006020828403121561341857613417612133565b5b6000613426848285016133ed565b91505092915050565b7f45524331393637557067726164653a206e657720696d706c656d656e7461746960008201527f6f6e206973206e6f742055555053000000000000000000000000000000000000602082015250565b600061348b602e836121ab565b91506134968261342f565b604082019050919050565b600060208201905081810360008301526134ba8161347e565b9050919050565b7f45524331393637557067726164653a20756e737570706f727465642070726f7860008201527f6961626c65555549440000000000000000000000000000000000000000000000602082015250565b600061351d6029836121ab565b9150613528826134c1565b604082019050919050565b6000602082019050818103600083015261354c81613510565b9050919050565b7f4e487b7100000000000000000000000000000000000000000000000000000000600052603260045260246000fd5b600061358d8261213d565b91507fffffffffffffffffffffffffffffffffffffffffffffffffffffffffffffffff8214156135c0576135bf612ee9565b5b600182019050919050565b7f6d6178436f7374206d757374206e6f74206265206c657373207468616e206d6160008201527f78436f73742074686973207061796d61737465722063616e20696e6375727200602082015250565b6000613627603f836121ab565b9150613632826135cb565b604082019050919050565b600060208201905081810360008301526136568161361a565b9050919050565b7f566572696679696e675061796d61737465723a20696e76616c6964207369676e60008201527f6174757265206c656e67746820696e207061796d617374657244617461000000602082015250565b60006136b9603d836121ab565b91506136c48261365d565b604082019050919050565b600060208201905081810360008301526136e8816136ac565b9050919050565b7f566572696679696e675061796d61737465723a2077726f6e67207369676e617460008201527f7572650000000000000000000000000000000000000000000000000000000000602082015250565b600061374b6023836121ab565b9150613756826136ef565b604082019050919050565b6000602082019050818103600083015261377a8161373e565b9050919050565b7f455243313936373a206e657720696d706c656d656e746174696f6e206973206e60008201527f6f74206120636f6e747261637400000000000000000000000000000000000000602082015250565b60006137dd602d836121ab565b91506137e882613781565b604082019050919050565b6000602082019050818103600083015261380c816137d0565b9050919050565b600081905092915050565b7f19457468657265756d205369676e6564204d6573736167653a0a333200000000600082015250565b6000613854601c83613813565b915061385f8261381e565b601c82019050919050565b6000819050919050565b6138856138808261262c565b61386a565b82525050565b600061389682613847565b91506138a28284613874565b60208201915081905092915050565b7f4e487b7100000000000000000000000000000000000000000000000000000000600052602160045260246000fd5b7f45434453413a20696e76616c6964207369676e61747572650000000000000000600082015250565b60006139166018836121ab565b9150613921826138e0565b602082019050919050565b6000602082019050818103600083015261394581613909565b9050919050565b7f45434453413a20696e76616c6964207369676e6174757265206c656e67746800600082015250565b6000613982601f836121ab565b915061398d8261394c565b602082019050919050565b600060208201905081810360008301526139b181613975565b9050919050565b7f45434453413a20696e76616c6964207369676e6174757265202773272076616c60008201527f7565000000000000000000000000000000000000000000000000000000000000602082015250565b6000613a146022836121ab565b9150613a1f826139b8565b604082019050919050565b60006020820190508181036000830152613a4381613a07565b9050919050565b7f45434453413a20696e76616c6964207369676e6174757265202776272076616c60008201527f7565000000000000000000000000000000000000000000000000000000000000602082015250565b6000613aa66022836121ab565b9150613ab182613a4a565b604082019050919050565b60006020820190508181036000830152613ad581613a99565b9050919050565b7f416464726573733a2064656c65676174652063616c6c20746f206e6f6e2d636f60008201527f6e74726163740000000000000000000000000000000000000000000000000000602082015250565b6000613b386026836121ab565b9150613b4382613adc565b604082019050919050565b60006020820190508181036000830152613b6781613b2b565b9050919050565b6000613b7982612720565b613b838185613080565b9350613b938185602086016121bc565b80840191505092915050565b6000613bab8284613b6e565b915081905092915050565b613bbf81613296565b82525050565b6000608082019050613bda6000830187612636565b613be76020830186613bb6565b613bf46040830185612636565b613c016060830184612636565b95945050505050565b6000613c158261213d565b9150613c208361213d565b9250827fffffffffffffffffffffffffffffffffffffffffffffffffffffffffffffffff03821115613c5557613c54612ee9565b5b82820190509291505056fe416464726573733a206c6f772d6c6576656c2064656c65676174652063616c6c206661696c6564a26469706673582212208f0b4c5e715e1c0cfec89e3c06f02566160d15ca0dbdbf9ce96e6438c004150464736f6c634300080c0033",
  "linkReferences": {},
  "deployedLinkReferences": {}
}